S01400004C696E65466F6C6C6F7765722E737265633E
S11300005EC0000079C0000077C0000075C0000029
S113001073C0000071C000006FC000006DC000001C
S11300206BC0000069C0000067C0000065C000002C
S113003063C0000061C000005FC000005DC000003C
S113004099C2000059C0000057C0000055C000000C
S113005053C0000051C000004FC000004DC000005C
S11300604CC0000049C0000047C0000045C000006B
S113007043C0000041C000003FC000003DC000007C
S11300803BC0000039C0000037C00000A4017C015F
S1130090490149014901490149014901490149010C
S11300A04901CC01B8014901490149014901E00173
S11300B04901490190014901680149015401112490
S11300C01FBECFEFD0E4DEBFCDBF11E0A0E0B1E0B2
S11300D0E2ECF8E000E00BBF02C007900D92AA3AF0
S11300E0B107D9F721E0AAEAB1E001C01D92AD3C05
S11300F0B207E1F7C1D0E3C383CF1F920F920FB6CB
S11301000F9211240BB60F922F938F939F93AF935B
S1130110BF93EF93FF93209178008091790090E052
S1130120982F8827822BACE7B0E0EC91E770F0E0E1
S1130130EE0FFF1FE954FE4F918380838C91873427
S113014039F480E480937C0081E08093AA0105C0A7
S1130150ECE7F0E080818F5F8083EAE7F0E0808164
S113016080648083FF91EF91BF91AF919F918F91B4
S11301702F910F900BBE0F900FBE0F901F901895EC
S113018088B1886088B988EB8A95F1F7000088B156
S1130190877F88B9089514B88BB18B7F8BB98BB1E5
S11301A088608BB92F99FECFEBDF8FEF84B9089568
S11301B0CF93C82FF0DFC5B98BB1837F8BB9E0DF54
S11301C014B815B8CF910895CF93C82FE4DFC5B9FB
S11301D08BB1877F8BB98BB184608BB9D1DF14B8B5
S11301E015B8CF910895CF93DF93EC0102C0219607
S11301F0EBDF88818111FBCFDF91CF910895E62F4A
S1130200F0E0E150FF4F208130E020583F4F90E074
S11302100197820FCDCF08958AB18C608AB987B1D6
S1130220886087B98FEF91EA0197F1F700C0000069
S113023081E0BEDF89E995E10197F1F700C088E329
S1130240B7DF98EB9A95F1F700008CE0B1DF88EB0B
S11302508A95F1F7000081E0ABDF8FEF9BE6019711
S1130260F1F700C00000089581E0A2DF89E995E17B
S11302700197F1F700C0089587B1846087B9CCDF96
S113028060D1B2D0789461E081E0B9DF83E191E09C
S1130290AADF69D1FC01FF27E254F109E931F10534
S11302A0C0F7EA5BFF4F02C3DFDF4091AB0164E6B6
S11302B08091AC01B8D04091AB0164E1809104011C
S11302C0B2D061E081E09BDF80E291E08CDFE1CF9E
S11302D0CBDF4091AB0160E58091AC01A4D04091AB
S11302E0AB016EE1809104019ED061E081E087DF83
S11302F082E391E078DFCDCFB7DF4091AB0160E5D9
S11303008091AC0190D04091AB0162E380910401F3
S11303108AD061E081E073DF86E491E064DFB9CFE5
S1130320A3DF4091AB0160E58091AC017CD04091AA
S1130330AB0160E58091040176D061E081E05FDF8C
S113034088E591E050DFA5CF8FDF4091AB0162E3F8
S11303508091AC0168D04091AB0160E580910401CB
S113036062D061E081E04BDF86E691E03CDF91CF33
S11303707BDF4091AB016EE18091AC0154D04091A0
S1130380AB0160E5809104014ED061E081E037DF8C
S113039089E791E028DF7DCF67DF4091AB0164E11D
S11303A08091AC0140D04091AB0164E6809104019E
S11303B03AD061E081E023DF8EE891E014DF69CF79
S11303C053DF4091AB0160E08091AC012CD04091AF
S11303D0AB0160E08091040126D061E081E00FDF91
S11303E081EA91E000DF55CF87B1806F87B98AB188
S11303F080638AB9E0E8F0E08081826A8083E1E882
S1130400F0E080818A61808380EA9FE09093870096
S113041080938600109289001092880010928B00BD
S113042010928A000895CF92DF92EF92FF920F9379
S11304301F93CF93C42F811137C06623F9F08AB17B
S113044080628AB970E080E090E03FD1009186003C
S11304501091870020E030E048EC52E4A2D06B0118
S11304607C01B80180E090E030D1A7019601BBD1B6
S113047000D1709389006093880003C08AB18F7D96
S11304808AB9C11107C088B1806488B988B18F77EF
S113049088B93FC0C13009F03CC088B18F7B88B9AE
S11304A088B1806888B935C06623F9F08AB1806163
S11304B08AB970E080E090E008D100918600109144
S11304C0870020E030E048EC52E46BD06B017C0103
S11304D0B80180E090E0F9D0A701960184D1C9D099
S11304E070938B0060938A0003C08AB18F7E8AB9AF
S11304F0C11107C088B1806188B988B18F7D88B97E
S113050008C0C13031F488B18F7E88B988B1806267
S113051088B9CF911F910F91FF90EF90DF90CF900A
S11305200895CF93C82F8A3011F48DE0FADF8091BB
S1130530C00085FFFCCFC093C60080E090E0CF915F
S1130540089585E091E09093CA018093C9011092C7
S1130550C50083E38093C40088E18093C1008EE0EA
S11305608093C20008958091C0008823E4F78091AD
S1130570C60008951F920F920FB60F9211248F9305
S11305809F938091AD019091AE0101969093AE013D
S11305908093AD019F918F910F900FBE0F901F908C
S11305A018950CD0E6C0DED040F0D5D030F021F460
S11305B05F3F19F0C7C0511110C1CAC0EBD098F306
S11305C09923C9F35523B1F3951B550BBB27AA27D0
S11305D062177307840738F09F5F5F4F220F331F42
S11305E0441FAA1FA9F333D00E2E3AF0E0E830D00E
S11305F091505040E695001CCAF729D0FE2F27D011
S1130600660F771F881FBB1F261737074807AB07DE
S1130610B0E809F0BB0B802DBF01FF2793585F4F53
S11306202AF09E3F510568F08DC0D7C05F3FECF3C0
S1130630983EDCF3869577956795B795F7959F5F18
S1130640C9F7880F911D9695879597F90895E1E06C
S1130650660F771F881FBB1F621773078407BA07CB
S113066020F0621B730B840BBA0BEE1F88F7E09526
S1130670089598D088F09F5790F0B92F9927B751D3
S1130680A0F0D1F0660F771F881F991F1AF0BA9552
S1130690C9F712C0B13081F09FD0B1E008959CC079
S11306A0672F782F8827B85F39F0B93FCCF3869548
S11306B077956795B395D9F73EF4909580957095A5
S11306C061957F4F8F4F9F4F0895E89409C097FB22
S11306D03EF490958095709561957F4F8F4F9F4F15
S11306E09923A9F0F92F96E9BB279395F695879559
S11306F077956795B795F111F8CFFAF4BB0F11F41C
S113070060FF1BC06F5F7F4F8F4F9F4F16C08823C2
S113071011F096E911C0772321F09EE8872F762FF8
S113072005C0662371F096E8862F70E060E02AF039
S11307309A95660F771F881FDAF7880F9695879525
S113074097F9089597F99F6780E870E060E008954D
S11307509FEF80EC089500240A94161617061806D5
S11307600906089500240A941216130614060506B1
S11307700895092E0394000C11F4882352F0BB0F42
S113078040F4BF2B11F460FF04C06F5F7F4F8F4FA5
S11307909F4F089557FD9058440F551F59F05F3FE0
S11307A071F04795880F97FB991F61F09F3F79F08F
S11307B087950895121613061406551FF2CF469511
S11307C0F1DF08C0161617061806991FF1CF869593
S11307D07105610508940895E894BB276627772777
S11307E0CB0197F908950BD0C4CFB5DF28F0BADF59
S11307F018F0952309F0A6CFABCF1124EECFCADFB2
S1130800A0F3959FD1F3950F50E0551F629FF0011F
S1130810729FBB27F00DB11D639FAA27F00DB11D78
S1130820AA1F649F6627B00DA11D661F829F222701
S1130830B00DA11D621F739FB00DA11D621F839F88
S1130840A00D611D221F749F3327A00D611D231F5E
S1130850849F600D211D822F762F6A2F11249F57AC
S113086050408AF0E1F088234AF0EE0FFF1FBB1FCF
S1130870661F771F881F91505040A9F79E3F51056E
S113088070F060CFAACF5F3FECF3983EDCF386951F
S113089077956795B795F795E7959F5FC1F7FE2B19
S11308A0880F911D9695879597F90895EE0FFF1F70
S11308B00024001C0BBE0790F691E02D0994F894D7
S10508C0FFCF64
S11308C200401454010000000200000000910200E4
S11308D200000048656C6C6F20576F726C642100D5
S11308E25475726E696E672046617374204C656636
S11308F274005475726E696E67204D656469756D16
S1130902204C656674005475726E696E6720536C70
S11309126F77204C65667400476F696E6720466F77
S11309227277617264005475726E696E6720536CDB
S11309326F77205269676874005475726E696E67C6
S1130942204D656469756D20526967687400547539
S1130952726E696E672046617374205269676874A7
S10D09620053746F7070696E670033
S9030000FC
